:10100000FCFFFF1F0D110000FB100000FB10000093
:10101000FB100000FB100000FB100000F9100000A6
:10102000F9100000F9100000F9100000FB1000009A
:10103000FB100000F9100000FB100000FD10000084
:10104000FB100000FB100000FB1000002D42000010
:10105000FB100000FB100000FB100000FB10000064
:10106000FB100000FB100000FB100000FB10000054
:10107000FB100000FB100000FB100000FB10000044
:10108000691E0000FB100000FB100000FB100000B8
:10109000FB100000FB100000FB100000FB10000024
:1010A000FB100000FB100000FB100000FB10000014
:1010B000FB100000FB100000FB100000FB10000004
:1010C000FB100000FB100000FB100000B516000034
:1010D000FB100000FB100000FB100000FB100000E4
:1010E000FB100000FB100000FB100000FB100000D4
:1010F000FB100000FB100000FEE7FEE7024A136849
:1011000001331360704700BF98F4FF1F38B5204AC1
:10111000204B21498B4204D252F8040F43F8040BB0
:10112000F8E71E4B1E4A0021934202D243F8041BEB
:10113000FAE71C4B1C494BF67F321A60072243F832
:10114000042C0A78184B1006FBD5184A812111701F
:10115000FF2102F8011C70221A7080221A701A787E
:101160001206FCD5124B134A0021934202D243F8D7
:10117000041BFAE762B600F063F80F4C0F4DAC4267
:1011800003D054F8043B9847F9E701F04FF8FEE725
:101190000846000098F4FF1F98F4FF1F98F4FF1F03
:1011A00024FFFF1F14E000E000000240070002409F
:1011B0000000001400080014084600000C4600005F
:1011C000014B1868704700BF00D00340044B05492D
:1011D00000221A600A60044A106010221A607047E8
:1011E00014D0034004D0034000D0034000280EDB9D
:1011F00003024FF48072B3F5004F06D3013A012A7F
:10120000A3EB000101D00B46F5E71B0A10E04342B7
:101210001B024FF48072B3F5014F06D3013A012A45
:1012200000EB030101D00B46F5E71B0AC3F5807301
:10123000013A43EA0223014A136070470CD003408D
:10124000104B114A00204BF6FF7110B418600F4C80
:101250005960282313609360136193611362936252
:10126000136393630922226004F5805404342060E0
:10127000074810BC016007490B608B60064B1A6081
:1012800000F038BC048003400C8003400080034021
:10129000089003400C9003400090034010B50023D9
:1012A0004FF4377242FA03F48C4202D30133072B16
:1012B000F8D1154A1A4102EB5102B2FBF1F14FF697
:1012C000FF720139914228BF1146C21E012A07D878
:1012D0000E4A0F4C0020106020600E4801600EE0A6
:1012E00017280FD80C4A22FA00F000F0010080F015
:1012F000010438B109480A4A14600460416043F0AF
:101300000803136010BD00BF006CDC0200900340B6
:1013100004900340089003406006F00004800340FE
:1013200000800340212810B518D80D4B53F8302009
:1013300092F880423CB1012311B182F8803010BD97
:1013400082F8003110BD03EBC0035B681A6811B16D
:1013500042F0030201E022F002021A6010BD00BF59
:101360000043000021289FBF044B53F8303093F80E
:101370000002C0B288BF0020704700BF00430000D9
:10138000212816D80B4A02EBC00301295B6852F8EA
:10139000302004D182F880124FF4A27208E00020BD
:1013A00082F8800211B94FF4807201E040F203121A
:1013B0001A60704700430000002910B5044601DCA4
:1013C00000215EE0FF2901DD01215AE0C21ED3B2F7
:1013D000012B94BF2F4B304B1B6803FB01131B0ADF
:1013E000142A49D8DFE802F00B11171D48482329B9
:1013F0004848484848484848482F353B4100274A14
:1014000013604FF45172264B34E0264A13604FF4B8
:101410005172254B2EE0254A136040F24442244B82
:1014200028E0244A136040F24442234B22E0234A3E
:10143000136040F24442224B1CE0224A136040F207
:101440004442214B16E0214A136040F24442204BB3
:1014500010E0204A136040F244421F4B0AE01F4A4A
:10146000136040F244421E4B04E01E4A13601E4BC0
:1014700040F244421A6010BD7F29D4BF00210121EF
:101480002046FFF74FFF20460121BDE81040FFF73F
:1014900077BF00BF089003400880034010900340CE
:1014A000309004401890034034900440488003403A
:1014B0001CC004403080034010C004402080034022
:1014C0000CB004402880034010B004403880034032
:1014D00014C004404080034018C004401080034002
:1014E00004B004401880034008B0044072B60B4BAF
:1014F0000B4A0C491B681268096862B6490102D59B
:10150000322B88BF0132C3F53B4330207F33B3FB1E
:10151000F0F34FF47A7000FB0230704718E000E0FF
:1015200098F4FF1F04ED00E038B50446FFF7DEFF36
:10153000054654B1FFF7DAFF401BB0F57A7FF9D3C7
:10154000013C02D005F57A75F4E738BD7FB519493D
:10155000194D22230B7003234B70184B1B68039308
:10156000174B1B680293174B1B680193164B04AC77
:101570001B6844F8103D154B00220846115D0132EE
:101580004B40102A05FB03F3F8D10B4E01221A251C
:10159000A11811F8011C4B407343B3FBF5F105FB97
:1015A0001131413120F812100132112AF0D104B06A
:1015B00070BD00BF0000001493010001548004407E
:1015C000588004405C80044060800440C59D1C81BC
:1015D00070B5134B93F8805003F14002002D18BFF3
:1015E0001A4601385418A24204D010F8016F02F8CC
:1015F000016BF8E793F881000A4A002845F00206DB
:1016000014BFC824882444EA014142F8361080F00F
:10161000010085F0010283F8810083F8802070BD0D
:101620009CF4FF1F00E0FF1F134A52F830301B0CE0
:1016300070B5064602EBC004154614D0606820F869
:10164000043D00F0EBFD50B972B60C4A012092F84F
:101650008230B040184382F8820062B670BD00F05C
:101660009DFA04306060064A064B14F0080F08BF6C
:10167000134645F8363070BD00E0FF1F9CF4FF1F95
:1016800088004000C800400038B572B6084B0024FE
:1016900093F8825083F8824062B63DB1EB0702D5E1
:1016A0002046FFF7C1FF01346D08F6E738BD00BFE3
:1016B0009CF4FF1F2DE9F047BB4DBC4F2E462B7805
:1016C000B949DBB213F0040F1CBF04222A7003F0E7
:1016D000080202F0FF00002A00F0BE813878C0B294
:1016E000030940F0B1818008B14C54F83020C2F3B6
:1016F0008302092A00F078810D2A06D0012A40F0E1
:101700009F81AC4B44F830309AE104EBC002DFF823
:10171000B4825168C8F894300A684968C8F89010D3
:10172000A44944F830100121C8F88C2088F88110B1
:1017300092B240F2A1318A42C14600F0CF8018D85F
:10174000B2F5817F7CD007D8802A5CD0822A60D015
:10175000212A40F0ED80E2E0B2F5E07FC0F0E880C1
:10176000B2F5E17FC0F0A48040F202339A4278D013
:10177000DEE040F281618A420DD8B2F5D06F80F090
:101780008380B2F5A06F00F0D78040F2A1539A4257
:1017900000F0BA80CCE0B2F5106F13D00BD8B2F5E0
:1017A000086F40F0C58098F8983088F88330DFF8EB
:1017B0002C920123C9E0A2F5FD42403A012A40F2F1
:1017C0008180B5E098F88E3088F89830236A180642
:1017D00003D5606A083800F007FA774B774A1B7820
:1017E000137019070BD500F0D9F9754B236204303B
:1017F000606200F0D3F96F4BA3620430E062002313
:101800002363A36398E088F8833088F88430022348
:1018100077E0B8F890306B49012B00F28980002204
:1018200081F8832081F884209B00674AD35C9A0763
:1018300040F184808946012309F8833F022384E034
:10184000B8F8902002F07F03012B71D8B8F88E30E1
:10185000002B6DD191005C4A0A44117821F00201FD
:1018600010E0B8F8902002F07F03012B60D8554BB0
:10187000B3F88E30002B5BD19100534A0A441178A3
:1018800041F00201117057E0B8F88E204F4BD3F8A9
:101890000490B9F1000F4BD019888A4206D1120A80
:1018A000032A0CBF99F800301B894EE00C33EEE799
:1018B000B8F89030002B45D0012B39D10423DFF844
:1018C000209142E0B8F89030042B01D1404A02E068
:1018D000052B2DD13F4A1378914636E0B8F8902079
:1018E000012A25D188F8842098F8992088F8833037
:1018F00088F8853088F8863088F8883088F887201E
:10190000062309F1830920E0B8F890302D4A012B15
:101910000ED1914692F8991009F8831F15E0B8F896
:101920009030012B04D1274A82F89930002303E03C
:10193000254B0F221A7034E0994606E0022301F18C
:10194000830902E0DFF89C900423B8F892409C429F
:1019500028BF1C46402CA24628BF4FF0400A4846EC
:101960005146FFF735FEB4EB0A04D14404D1BAF175
:10197000400F16D1A24604E0402CA24628BF4FF0EB
:10198000400A51464846FFF723FEB4EB0A0409EB30
:101990000A0302D1BAF1400F03D1C8F89430A8F875
:1019A0009A4001220C4B4AE08020074090200740DB
:1019B00000E0FF1FC800400010440000C4200740A2
:1019C000880040009CF4FF1FC02007401444000022
:1019D0001245000080440000942007401FF5FF1FBF
:1019E00020FFFF1F1CFFFF1FDFF8E880D8F894A03E
:1019F000BAF1000F17D0B8F89A40402CA14628BF82
:101A00004FF0400950464946FFF7E2FDC9EB04009C
:101A100080B2A8F89A0010B9B9F1400F01D10AEBD1
:101A20000900C8F89400B8F88C202A4BB2F5A06FD2
:101A300006D1002283F88D2093F88E20264B1A7051
:101A4000264B01221A7004E0030702D48008FFF736
:101A5000EBFD0823337032E6DC0725D51F4C1D4A09
:101A60001F4D022323701F4B82F880001D609D6074
:101A700002F1DC05DD6002F19C0602F14005DA614D
:101A80005E6018615D619861174B0D221A70174AEC
:101A9000FF2313700B7010741371154B9F221A7073
:101AA00001232370BDE8F087180604D50E4A0D20E7
:101AB000107080220A709A0705D50C480278D2B2BD
:101AC000027002220A70DB0644BF10230B70BDE8CF
:101AD000F08700BF9CF4FF1F982007409420074028
:101AE0008800400000E0FF1FC0200740882007401A
:101AF0008420074008B500F047F8FFF727FD0023D2
:101B00001A481946C21819500833282B5160174A31
:101B1000F8D117490B6843F480230B60154B8021E3
:101B20001970187813490006FBD4134BC2F3072031
:101B30001870C2F30740120E18751A760F4AFF2369
:101B40001370137202F8703C0B7843F040030B7073
:101B500001230021137582F880101371084B0822AD
:101B60001A60084B10221A7008BD00BF00E0FF1F6A
:101B7000348004400C2107409C200740802007400F
:101B800004E100E008210740034B4FF0FF321A60E8
:101B90005A609A60DA607047B8F5FF1F10B572B6E8
:101BA0000F4A002352F8231011B90133042BF9D145
:101BB000B1FA81F202EB4312352A00D9FEE702F0B6
:101BC0001F044FF00040E04021EA0001044840F8C3
:101BD000231062B6034B442000FB023010BD00BF4F
:101BE000B8F5FF1F40E6FF1F0B4BC01A4423B0FBA4
:101BF000F3F035280ED8410972B6084A4FF0004379
:101C000000F01F0023FA00F052F82130034342F89D
:101C1000213062B6704700BF40E6FF1FB8F5FF1FD6
:101C200072B6044B4AF202621A804BF280421A806A
:101C300062B670470C200540164A136843F480636F
:101C40001360154B00221A705A709A70DA701A716C
:101C5000124B40F213321A604FF451725A60104B1B
:101C6000C0F344321A70C0F347125A7000F01F00DC
:101C70000C4A98720221042313705174D3740A4BD6
:101C800088221A703C2203F80D2C084B4FF4803246
:101C90001A607047348004402200001440A00440C1
:101CA00000A0064002A0064010A0064000E100E0AF
:101CB00008B50D4B1B685B0515D50C4801790B4A1F
:101CC00001F0FF0311B1FFF7ABFFF7E708494FF44D
:101CD00080300860074908480B7040F2031101602A
:101CE00041601370537008BD34800440220000141A
:101CF00080E100E003A0064040A004400E4B1B68BA
:101D00005B0510B516D50D4B9978013108291C4695
:101D100028BF0021E278094B8A4202D1FFF780FFF9
:101D2000F8E75A18C9B2507101221A719970044B20
:101D3000BC221A7010BD00BF348004402200001481
:101D400003A0064000F00F00092894BF3030373060
:101D5000FFF7D4BF164B1B685B052DE9F04124D576
:101D6000144FDFF8548006463D4643189E4219D270
:101D7000BC78EB780134082C28BF00249C4208D0A2
:101D80002B1916F8012B5A71E4B201232B71AC7098
:101D9000EBE7BC2388F80030FFF742FFEB789C426A
:101DA000FAD0EDE7044BBC221A70BDE8F08100BF09
:101DB000348004402200001403A0064008B5034903
:101DC0000B7913B1FFF72CFFFAE708BD22000014CE
:101DD000044B18785A78C0B2D3B2984238BF083052
:101DE000C01A704722000014084A11785378DBB2F9
:101DF000994208D00133DBB2082B28BF0023D11849
:101E0000487B537070474FF0FF307047220000143A
:101E1000054908784A78D3B298421DBF5B18587BB1
:101E2000C0B24FF0FF307047220000140A4B1B680D
:101E30005B050FD5094B1A7802F0CB021A70084ADD
:101E4000402111701A7842F034021A70054A537812
:101E5000DBB21370704700BF3480044003A006401B
:101E600011A0064022000014F0B52E4A137813F09A
:101E7000300F25D072B62C4B2C4F1B7803F0FF048B
:101E80002BB93B782A4B4021197062B618E062B634
:101E9000284B18785D78C0B2EDB21946431CDBB20E
:101EA000082B28BF0023AB423E7818BFC818F6B2F3
:101EB0001CBF46731846631E13F0FF04EED1087072
:101EC0001D4B1878C0B206061FD513781D061CD509
:101ED0001849164F8D78CB78184EEDB2DBB2AB4275
:101EE0000CD00133DBB2082B28BF00231478CC18A8
:101EF0006479E4B23C703478072CF0D9CB70137855
:101F00001C0642BF0C4B7C211970410608D5137882
:101F10005B0605D5074B00221A71074B3C221A704D
:101F2000F0BD00BF04A0064016A0064007A0064072
:101F300011A006402200001403A0064014A0064091
:101F400038B5451E15F8014F44B10A2C02D10D20B9
:101F5000FFF7D4FE2046FFF7D1FEF3E738BD10B5FA
:101F600004460009FFF7EEFE2046BDE81040E9E612
:101F700010B50446000AFFF7F2FF2046BDE8104006
:101F8000FFF7EDBF10B50446000EFFF7E8FF200C89
:101F9000FFF7E5FF200AFFF7E2FF2046BDE810400B
:101FA000FFF7DDBFF0B51C78167857789278059D5D
:101FB0004C4300FB06465C784C4300FB07449F788B
:101FC000794300FB0217C6F307432C48360E03F192
:101FD0008072A2EB03424FEA144E390C50F81630CF
:101FE00022FB13F2240E5FFA8EF300EB440403F19C
:101FF0008076D209A6EB0343D4F8024223FB14F304
:102000003F0EC9B200EB470001F18074A4EB01441C
:10201000DB09D0F8041424FB11F1B5F90040144495
:10202000B5F902201344B5F9042002EBD11104F1F3
:10203000800282F31002120A1702C2EB070EC2EBF3
:102040000E22224403F1800686F31006360A2A8007
:10205000C6EB062201F18000C6EB022280F31000DD
:10206000000A1A44C0EB0023C0EB0323194447EADB
:1020700006436A80A9801843F0BD00BFC8F5FF1F62
:102080000A490B4BD1F80C261B68D1F80816526E82
:10209000486E82B0101A0193019B9B1A834228BF9D
:1020A00003461B04B3FBF0F002B07047C8F5FF1FF6
:1020B00098F4FF1F0378104A32F8131043788078A1
:1020C00002EB430302EB4002B3F80232B2F80424FD
:1020D00049005B008031803381F3100183F31003EA
:1020E00021F0FF001B0A40EA03405200803282F3D5
:1020F000100240EA12207047C8F5FF1FF0B51E78A5
:1021000014785D789B78224F4E4300FB0466547828
:1021100092784D43594300FB0211C6F30742360E35
:1021200000FB045502F18073A3EB02432C0C080C56
:1021300057F8162023FB12F32D0EE4B207EB4505EA
:1021400004F18076A6EB0444D5F8022224FB12F4B5
:10215000090EC5B207EB410005F18072A2EB054202
:10216000D0F8040422FB10F0E209DB09803380324E
:1021700083F3100382F3100223F0FF03120A43EAF1
:102180000243C009803080F3100043EA1020F0BD04
:10219000C8F5FF1FF0B5204A0378447832F8137071
:1021A000837802EB440402EB4302B1F90030B4F847
:1021B0000262B2F8045403EB4707B1F9023003EBB3
:1021C0004606B1F9043003EB450507F1800383F3BC
:1021D00010031B0A1802C3EB000EC3EB0E233B4493
:1021E00006F1800484F31004240A0B80C4EB04235A
:1021F000C4EB032305F1800282F31002120A1E448D
:10220000C2EB0223C2EB03231D4440EA04404E808C
:102210008D801043F0BD00BFC8F5FF1F08B5014613
:10222000014801F089FE08BDD0FBFF1F2DE9804861
:1022300001219BB00D20FFF7A3F8E54801F028FF2E
:1022400040F24130FFF7F8FCE248FFF779FEE24B3D
:102250001A7802F0FF03002A41F0088672B6DF49BF
:102260004AF202620A804BF280420A8062B6DC4A7D
:10227000DC4992F8B42702F00302022A00F08E83B0
:10228000032A01F0BD82012A00F0E886159113931C
:10229000FFF7F6FE6FF4807303FB00F2159902F16D
:1022A000807303F580330A68149300EB00231693C0
:1022B00002F118031793CC4B1593139BC8481522B2
:1022C000B3FBF2F102FB1132C54BD0F80806D3F88C
:1022D0000C3602EB420253F8213050F821101498CA
:1022E000013213440A4415990091043304321699BB
:1022F000FFF758FE430860F3186A63F3104A830837
:1023000063F3082AC30863F3000A030963F3186937
:10231000430963F31049830963F30829C30963F38D
:102320000009030A63F31868430A63F31048830A39
:1023300063F30828C30A63F30008030B63F3186709
:10234000430B63F31047830B63F30827C30B63F35B
:102350000007030C63F31866430C63F31046830C09
:1023600063F30826C30C63F30006030D63F31865DB
:10237000430D63F31045830D63F30825139BC00DD4
:1023800003F12002152360F30005B2FBF3F194483A
:1023900003FB1122924BD0F80806D3F80C3602EB5F
:1023A000420253F8213050F821101498013213449E
:1023B0000A441599C0310091043304321699FFF78D
:1023C000F1FD430860F3596A63F3514A830863F3EC
:1023D000492AC30863F3410A030963F359694309AE
:1023E00063F35149830963F34929C30963F341093D
:1023F000030A63F35968430A63F35148830A63F39A
:102400004928C30A63F34108030B63F35967430B7D
:1024100063F35147830B63F34927C30B63F341070E
:10242000030C63F35966430C63F35146830C63F367
:102430004926C30C63F34106030D63F35965430D4D
:1024400063F35145830D63F34925139BC00D03F1DD
:102450004002152360F34105B2FBF3F1604803FB32
:1024600011225F4BD0F80806D3F80C3602EB42027B
:1024700053F8213050F821101498013213440A44C3
:10248000159901F5C0710091043304321699FFF7D4
:1024900089FD430860F39A6A63F3924A830863F301
:1024A0008A2AC30863F3820A030963F39A6943091A
:1024B00063F39249830963F38A29C30963F38209A9
:1024C000030A63F39A68430A63F39248830A63F347
:1024D0008A28C30A63F38208030B63F39A67430BEA
:1024E00063F39247830B63F38A27C30B63F382077B
:1024F000030C63F39A66430C63F39246830C63F315
:102500008A26C30C63F38206030D63F39A65430DB9
:1025100063F39245830D63F38A25139BC00D03F18A
:102520006002152360F38205B2FBF3F12C4803FB34
:1025300011222B4BD0F80806D3F80C3602EB4202DE
:1025400053F8213050F821101498013213440A44F2
:10255000159901F510710091043304321699FFF7B3
:1025600021FD430860F3DB6A63F3D34A830863F316
:10257000CB2AC30863F3C30A030963F3DB69430986
:1025800063F3D349830963F3CB29C30963F3C30915
:10259000030A63F3DB68430A63F3D348830A63F3F4
:1025A000CB28C30A63F3C308030B63F3DB67430B56
:1025B00063F3D347830B63F3CB27C30B63F3C307E7
:1025C000030C63F3DB66430C63F3D346830C0DE02B
:1025D00000FFFF1FF545000035F5FF1F0C200540EB
:1025E000C8F5FF1F0CFFFF1F80FDFF1F63F3CB2605
:1025F000C30C63F3C306030D63F3DB65430D63F3A1
:10260000D345830D63F3CB25139BC00D03F18002EB
:10261000152360F3C305B2FBF3F1DC4803FB112281
:10262000DA4BD0F80806D3F80C3602EB420253F826
:10263000213050F821101498013213440A4415999E
:1026400001F540710091043304321699FFF7AAFC9A
:10265000430860F31C7A63F3145A830863F30C3A5B
:10266000C30863F3041A030963F31C79430963F392
:102670001459830963F30C39C30963F30419030A7A
:1026800063F31C78430A63F31458830A63F30C382A
:10269000C30A63F30418030B63F31C77430B63F360
:1026A0001457830B63F30C37C30B63F30417030C4A
:1026B00063F31C76430C63F31456830C63F30C36FC
:1026C000C30C63F30416030D63F31C75430D63F32E
:1026D0001455830D63F30C35139BC00D03F1A00259
:1026E000152360F30415B2FBF3F1A84803FB112294
:1026F000A64BD0F80806D3F80C3602EB420253F88A
:10270000213050F821101498013213440A441599CD
:1027100001F570710091043304321699FFF742FC01
:10272000430860F35D7A63F3555A830863F34D3AC7
:10273000C30863F3451A030963F35D79430963F33F
:102740005559830963F34D39C30963F34519030AE6
:1027500063F35D78430A63F35558830A63F34D3896
:10276000C30A63F34518030B63F35D77430B63F30D
:102770005557830B63F34D37C30B63F34517030CB6
:1027800063F35D76430C63F35556830C63F34D3668
:10279000C30C63F34516030D63F35D75430D63F3DB
:1027A0005555830D63F34D35139BC00D03F1C002E6
:1027B000152360F34515B2FBF3F1744803FB1122B6
:1027C000724BD0F80806D3F80C3602EB420253F8ED
:1027D000213050F821101498013213440A441599FD
:1027E00001F590610091043304321699FFF7DAFB8A
:1027F000430860F39E7A63F3965A830863F38E3A34
:10280000C30863F3861A030963F39E79430963F3EC
:102810009659830963F38E39C30963F38619030A52
:1028200063F39E78430A63F39658830A63F38E3802
:10283000C30A63F38618030B63F39E77430B63F3BA
:102840009657830B63F38E37C30B63F38617030C22
:1028500063F39E76430C63F39656830C63F38E36D4
:10286000C30C63F38616030D63F39E75430D63F388
:102870009655830D63F38E35139BC00D03F1E00273
:10288000152360F38615B2FBF3F1404803FB1122D8
:102890003E4BD0F80806D3F80C3602EB420253F850
:1028A000213050F821101498013213440A4415992C
:1028B00001F5A8610091043304321699FFF772FB09
:1028C000430860F3DF7A63F3D75A830863F3CF3AA0
:1028D000C30863F3C71A030963F3DF79430963F39A
:1028E000D759830963F3CF39C30963F3C719030ABF
:1028F00063F3DF78430A63F3D758830A63F3CF386F
:10290000C30A63F3C718030B63F3DF77430B63F367
:10291000D757830B63F3CF37C30B63F3C717030C8E
:1029200063F3DF76430C63F3D756830C63F3CF3640
:10293000C30C63F3C716030D63F3DF75430D63F335
:10294000D755830D63F3CF35C00D179B60F3C715C3
:1029500043F8185C43F8146C03E98007139B0133B8
:102960001393159B06331593179B18331793139BDB
:10297000202B7FF4A2AC064801F07AFC054801F058
:102980004BFB054A13680133136060E4C8F5FF1F71
:1029900000FFFF1FD0FBFF1F1CFFFF1F0A68DE495F
:1029A00013931832149115231692DC4A1593D2F81A
:1029B0000C16139AB2FBF3FE03FB1E2051F82E10E7
:1029C00000EB4000084405301499FFF7E3FB410891
:1029D00060F3186461F310448108129B61F30824CA
:1029E000C10861F30004010961F31863410961F34F
:1029F0001043810961F30823C10961F300031293B5
:102A0000119B010A61F31863410A61F31043810AC3
:102A100061F30823C10A61F300031193109B010BBA
:102A200061F31863410B61F31043810B61F30823D9
:102A3000C10B61F3000310930F9B010C61F318634A
:102A4000410C61F31043810C61F30823C10C61F365
:102A500000030F930E9B010D61F31863410D61F3A9
:102A60001043810D61F30823C00D60F300030E9342
:102A7000139B03F12000A94BD3F80C16159BB0FB58
:102A8000F3FE03FB1E0051F82E10149B00EB4000D8
:102A90000844053003F1C001FFF77CFB410860F3F7
:102AA000596461F351448108129B61F34924C108C0
:102AB00061F34104010961F35963410961F3514331
:102AC000810961F34923C10961F341031293119B09
:102AD000010A61F35963410A61F35143810A61F3C9
:102AE0004923C10A61F341031193109B010B61F368
:102AF0005963410B61F35143810B61F34923C10BCE
:102B000061F3410310930F9B010C61F35963410C76
:102B100061F35143810C61F34923C10C61F341031B
:102B20000F930E9B010D61F35963410D61F3514306
:102B3000810D61F34923C00D60F341030E93139B94
:102B400003F14000754BD3F80C16159BB0FBF3FE58
:102B500003FB1E0051F82E10149B00EB40000844AC
:102B6000053003F5C071FFF715FB410860F39A6467
:102B700061F392448108129B61F38A24C10861F3D6
:102B80008204010961F39A63410961F39243810967
:102B900061F38A23C10961F382031293119B010A35
:102BA00061F39A63410A61F39243810A61F38A23D4
:102BB000C10A61F382031193109B010B61F39A63C5
:102BC000410B61F39243810B61F38A23C10B61F3E3
:102BD000820310930F9B010C61F39A63410C61F324
:102BE0009243810C61F38A23C10C61F382030F933A
:102BF0000E9B010D61F39A63410D61F39243810DC8
:102C000061F38A23C00D60F382030E93139B03F1DB
:102C10006000424BD3F80C16159BB0FBF3FE03FB90
:102C20001E0051F82E10149B00EB400008440530A4
:102C300003F51071FFF7AEFA410860F3DB6461F34E
:102C4000D3448108129B61F3CB24C10861F3C30410
:102C5000010961F3DB63410961F3D343810961F346
:102C6000CB23C10961F3C3031293119B010A61F3E2
:102C7000DB63410A61F3D343810A61F3CB23C10AC9
:102C800061F3C3031193109B010B61F3DB63410BF1
:102C900061F3D343810B61F3CB23C10B61F3C30316
:102CA00010930F9B010C61F3DB63410C61F3D34381
:102CB000810C61F3CB23C10C61F3C3030F930E9B13
:102CC000010D61F3DB63410D61F3D343810D61F3CA
:102CD000CB23C00D60F3C3030E93139B03F180005D
:102CE0000E4BD3F80C16159BB0FBF3FE03FB1E0036
:102CF00051F82E10149B00EB40000844053003F5FA
:102D00004071FFF747FA410860F31C7461F31454F3
:102D10008108129B04E000BF80FDFF1FC8F5FF1F64
:102D200061F30C34C10861F30414010961F31C73ED
:102D3000410961F31453810961F30C33C10961F353
:102D400004131293119B010A61F31C73410A61F38E
:102D50001453810A61F30C33C10A61F30413119314
:102D6000109B010B61F31C73410B61F31453810B36
:102D700061F30C33C10B61F3041310930F9B010C2F
:102D800061F31C73410C61F31453810C61F30C3338
:102D9000C10C61F304130F930E9B010D61F31C73BF
:102DA000410D61F31453810D61F30C33C00D60F3D9
:102DB00004130E93139B03F1A000A74BD3F80C163A
:102DC000159BB0FBF3FE03FB1E0051F82E10149B65
:102DD00000EB40000844053003F57071FFF7DAF9A5
:102DE000410860F35D7461F355548108129B61F3EF
:102DF0004D34C10861F34514010961F35D73410964
:102E000061F35553810961F34D33C10961F34513F2
:102E10001293119B010A61F35D73410A61F35553EB
:102E2000810A61F34D33C10A61F345131193109B7D
:102E3000010B61F35D73410B61F35553810B61F33A
:102E40004D33C10B61F3451310930F9B010C61F3DC
:102E50005D73410C61F35553810C61F34D33C10C2B
:102E600061F345130F930E9B010D61F35D73410DEB
:102E700061F35553810D61F34D33C00D60F345137C
:102E80000E93139B03F1C000734BD3F80C16159BE4
:102E9000B0FBF3FE03FB1E0051F82E10149B00EB59
:102EA00040000844053003F59061FFF773F94108CD
:102EB00060F39E7461F396548108129B61F38E3423
:102EC000C10861F38614010961F39E73410961F33E
:102ED0009653810961F38E33C10961F3861312930E
:102EE000119B010A61F39E73410A61F39653810AB3
:102EF00061F38E33C10A61F386131193109B010BAA
:102F000061F39E73410B61F39653810B61F38E3332
:102F1000C10B61F3861310930F9B010C61F39E7339
:102F2000410C61F39653810C61F38E33C10C61F354
:102F300086130F930E9B010D61F39E73410D61F398
:102F40009653810D61F38E33C00D60F386130E939B
:102F5000139B03F1E000404BD3F80C16159BB0FB1C
:102F6000F3FE03FB1E0051F82E10149B00EB4000F3
:102F70000844053003F5A861FFF70CF9410860F338
:102F8000DF7461F3D754810861F3CF34129B169A32
:102F9000C10861F3C714010961F3DF73410961F3EB
:102FA000D753810961F3CF33C10961F3C71312937A
:102FB000119B010A61F3DF73410A61F3D753810A60
:102FC00061F3CF33C10A61F3C7131193109B010B57
:102FD00061F3DF73410B61F3D753810B61F3CF339F
:102FE000C10B61F3C71310930F9B010C61F3DF73E7
:102FF000410C61F3D753810C61F3CF33C10C61F302
:10300000C7130F930E9B010D61F3DF73410D61F345
:10301000D753810D61F3CF33C00D60F3C71342F86E
:10302000183C0E930F9B42F8143C109B42F8103C46
:10303000119B42F80C3C129B02E91800139B0133D0
:103040001393149B06331493139B202B02F1180245
:10305000159B7FF4A9AC8EE4C8F5FF1F169113935E
:10306000FFF70EF86FF4807303FB00F2169902F17C
:10307000807303F580330A68149300EB00231593E3
:1030800002F118031693139BDA481522B3FBF2F1F1
:1030900002FB1132D74BD0F80806D3F80C3602EBFE
:1030A000420253F8213050F8211014980132134491
:1030B0000A44043304321599FFF720F80D9B60F39E
:1030C00018630D930D9A430863F31042830863F36A
:1030D0000822C30863F300020D920C9A030963F3FC
:1030E0001862430963F31042830963F30822C3099A
:1030F00063F300020C920B9A030A63F31862430A0B
:1031000063F31042830A63F30822C30A63F30002E5
:103110000B920A9A030B63F31862430B63F310429A
:10312000830B63F30822C30B63F300020A92099A2C
:10313000030C63F31862430C63F31042830C63F3D4
:103140000822C30C63F300020992089A030D63F38B
:103150001862430D63F31042830D63F30822134694
:10316000C00D60F300030893139BA24803F12002F3
:103170001523B2FBF3F103FB11229E4BD0F8080696
:10318000D3F80C3602EB420253F8213050F82110EC
:103190001498013213440A44043304321599FEF79B
:1031A000ADFF0D9B60F359630D930D9A430863F3D4
:1031B0005142830863F34922C30863F341020D922D
:1031C0000C9A030963F35962430963F3514283097B
:1031D00063F34922C30963F341020C920B9A030A79
:1031E00063F35962430A63F35142830A63F349224A
:1031F000C30A63F341020B920A9A030B63F3596209
:10320000430B63F35142830B63F34922C30B63F314
:1032100041020A92099A030C63F35962430C63F367
:103220005142830C63F34922C30C63F341020992B8
:10323000089A030D63F35962430D63F35142830D02
:1032400063F349221346C00D60F341030893139BB7
:10325000684803F140021523B2FBF3F103FB11228E
:10326000644BD0F80806D3F80C3602EB420253F850
:10327000213050F821101498013213440A440433C9
:1032800004321599FEF73AFF0D9B60F39A630D9394
:103290000D9A430863F39242830863F38A22C308BA
:1032A00063F382020D920C9A030963F39A62430955
:1032B00063F39242830963F38A22C30963F38202B0
:1032C0000C920B9A030A63F39A62430A63F39242E5
:1032D000830A63F38A22C30A63F382020B920A9A77
:1032E000030B63F39A62430B63F39242830B63F322
:1032F0008A22C30B63F382020A92099A030C63F3D6
:103300009A62430C63F39242830C63F38A22C30CE8
:1033100063F382020992089A030D63F39A62430DE4
:1033200063F39242830D63F38A221346C00D60F368
:1033300082030893139B2F4803F160021523B2FB0D
:10334000F3F103FB11222B4BD0F80806D3F80C360F
:1033500002EB420253F8213050F821101498013248
:1033600013440A44043304321599FEF7C7FE0D9B3B
:1033700060F3DB630D930D9A430863F3D342830834
:1033800063F3CB22C30863F3C3020D920C9A0309C3
:1033900063F3DB62430963F3D342830963F3CB2214
:1033A000C30963F3C3020C920B9A030A63F3DB6253
:1033B000430A63F3D342830A63F3CB22C30A63F362
:1033C000C3020B920A9A030B63F3DB62430B63F3B2
:1033D000D342830B63F3CB22C30B63F3C3020A9282
:1033E000099A030C63F3DB62430C63F3D342830C4F
:1033F00002E000BFC8F5FF1F63F3CB22C30C63F3E9
:10340000C3020992089A030D63F3DB62430D63F371
:10341000D342830D63F3CB221346C00D60F3C30385
:103420000893139BD94803F180021523B2FBF3F1F3
:1034300003FB1122D54BD0F80806D3F80C3602EB6B
:10344000420253F8213050F82110149801321344ED
:103450000A44043304321599FEF750FE0D9B60F3C5
:103460001C730D930D9A430863F31452830863F39E
:103470000C32C30863F304120D920C9A030963F330
:103480001C72430963F31452830963F30C32C309BA
:1034900063F304120C920B9A030A63F31C72430A3F
:1034A00063F31452830A63F30C32C30A63F3041206
:1034B0000B920A9A030B63F31C72430B63F31452CF
:1034C000830B63F30C32C30B63F304120A92099A61
:1034D000030C63F31C72430C63F31452830C63F309
:1034E0000C32C30C63F304120992089A030D63F3C0
:1034F0001C72430D63F31452830D63F30C321346B5
:10350000C00D60F304130893139BA04803F1A002BD
:103510001523B2FBF3F103FB11229C4BD0F80806F4
:10352000D3F80C3602EB420253F8213050F8211048
:103530001498013213440A44043304321599FEF7F7
:10354000DDFD0D9B60F35D730D930D9A430863F3EE
:103550005552830863F34D32C30863F345120D924D
:103560000C9A030963F35D72430963F355528309AF
:1035700063F34D32C30963F345120C920B9A030AAD
:1035800063F35D72430A63F35552830A63F34D326A
:10359000C30A63F345120B920A9A030B63F35D723D
:1035A000430B63F35552830B63F34D32C30B63F349
:1035B00045120A92099A030C63F35D72430C63F39C
:1035C0005552830C63F34D32C30C63F345120992D9
:1035D000089A030D63F35D72430D63F35552830D37
:1035E00063F34D321346C00D60F345130893139BEC
:1035F000664803F1C0021523B2FBF3F103FB11226D
:10360000624BD0F80806D3F80C3602EB420253F8AE
:10361000213050F821101498013213440A44043325
:1036200004321599FEF76AFD0D9B60F39E730D93AE
:103630000D9A430863F39652830863F38E32C308EE
:1036400063F386120D920C9A030963F39E72430989
:1036500063F39652830963F38E32C30963F38612D0
:103660000C920B9A030A63F39E72430A63F3965219
:10367000830A63F38E32C30A63F386120B920A9AAB
:10368000030B63F39E72430B63F39652830B63F356
:103690008E32C30B63F386120A92099A030C63F30A
:1036A0009E72430C63F39652830C63F38E32C30C09
:1036B00063F386120992089A030D63F39E72430D19
:1036C00063F39652830D63F38E321346C00D60F39D
:1036D00086130893139B2D4803F1E0021523B2FBD8
:1036E000F3F103FB1122294BD0F80806D3F80C366E
:1036F00002EB420253F8213050F8211014980132A5
:1037000013440A44043304321599FEF7F7FC0D9B69
:1037100060F3DF730D930D9A430863F3D752830868
:1037200063F3CF32C30863F3C7120D920C9A0309F7
:1037300063F3DF72430963F3D752830963F3CF3234
:10374000C30963F3C7120C920B9A030A63F3DF7287
:10375000430A63F3D752830A63F3CF32C30A63F396
:10376000C7120B920A9A030B63F3DF72430B63F3E6
:10377000D752830B63F3CF32C30B63F3C7120A92A2
:10378000099A030C63F3DF72430C01E0C8F5FF1FD5
:1037900063F3D752830C63F3CF32C30C63F3C712C6
:1037A0000992089A030D63F3DF72430D63F3D75256
:1037B000830D63F3CF321346C00D60F3C713089334
:1037C000169B1A46089B42F8183C099B42F8143C89
:1037D0000A9B42F8103C0B9B42F80C3C0C9B42F8B5
:1037E000083C0D9B42F8043C139B01331393134692
:1037F00018331693139B202B7FF445ACFFF7BBB80F
:103800000A681393183215231692DF4A1593D2F8DB
:103810000C261492139AB2FBF3F103FB1120149BB4
:1038200053F8211000EB400008440530FEF742FC3D
:10383000079B410860F3186361F31043810861F34B
:103840000823C10861F300030793069B010961F394
:103850001863410961F31043810961F30823C10929
:1038600061F300030693059B010A61F31863410AA3
:1038700061F31043810A61F30823C10A61F3000375
:103880000593049B010B61F31863410B61F3104333
:10389000810B61F30823C10B61F300030493039BC5
:1038A000010C61F31863410C61F31043810C61F367
:1038B0000823C10C61F30003010D61F3186B410D86
:1038C000039361F3104B139B810D61F3082BC00D23
:1038D00060F3000B03F12000159BB0FBF3F103FB39
:1038E0001100149B53F8211000EB400008440530F0
:1038F000FEF7E0FB079B410860F3596361F3514316
:10390000810861F34923C10861F341030793069BD2
:10391000010961F35963410961F35143810961F37D
:103920004923C10961F341030693059B010A61F331
:103930005963410A61F35143810A61F34923C10A82
:1039400061F341030593049B010B61F35963410B40
:1039500061F35143810B61F34923C10B61F34103CF
:103960000493039B010C61F35963410C61F35143D0
:10397000810C61F34923C10C61F34103010D61F333
:10398000596B410D039361F3514B139B810D61F30F
:10399000492BC00D60F3410B03F14000159BB0FBB8
:1039A000F3F103FB1100149B53F8211000EB4000CE
:1039B00008440530FEF77EFB079B410860F39A63DD
:1039C00061F39243810861F38A23C10861F38203A2
:1039D0000793069B010961F39A63410961F39243DE
:1039E000810961F38A23C10961F382030693059B70
:1039F000010A61F39A63410A61F39243810A61F318
:103A00008A23C10A61F382030593049B010B61F3CE
:103A10009A63410B61F39243810B61F38A23C10BDB
:103A200061F382030493039B010C61F39A63410CDD
:103A300061F39243810C61F38A23C10C61F3820329
:103A4000010D61F39A6B410D039361F3924B139B4C
:103A5000810D61F38A2BC00D60F3820B03F16000CE
:103A6000159BB0FBF3F103FB1100149B53F82110DD
:103A700000EB400008440530FEF71CFB079B4108A3
:103A800060F3DB6361F3D343810861F3CB23C108A7
:103A900061F3C3030793069B010961F3DB634109EB
:103AA00061F3D343810961F3CB23C10961F3C303FC
:103AB0000693059B010A61F3DB63410A61F3D3437B
:103AC000810A61F3CB23C10A61F3C3030593049B0D
:103AD000010B61F3DB63410B61F3D343810B61F3B2
:103AE000CB23C10B61F3C3030493039B010C61F36C
:103AF000DB63410C61F3D343810C61F3CB23C10C35
:103B000061F3C303010D61F3DB6B410D039361F3BB
:103B1000D34B139B810D61F3CB2BC00D60F3C30B13
:103B200003F18000159BB0FBF3F103FB1100149B24
:103B300053F8211000EB400008440530FEF7BAFAB4
:103B4000079B410860F31C7361F31453810861F310
:103B50000C33C10861F304130793069B010961F359
:103B60001C73410961F31453810961F30C33C109DA
:103B700061F304130693059B010A61F31C73410A68
:103B800061F31453810A01E0C8F5FF1F61F30C33A0
:103B9000C10A61F304130593049B010B61F31C73C9
:103BA000410B61F31453810B61F30C33C10B61F3CF
:103BB00004130493039B010C61F31C73410C61F328
:103BC0001453810C61F30C33C10C61F30413010D28
:103BD00061F31C7B410D039361F3145B139B810D17
:103BE00061F30C3BC00D60F3041B03F1A000159BB7
:103BF000B0FBF3F103FB1100149B53F8211000EB11
:103C0000400008440530FEF755FA079B410860F371
:103C10005D7361F35553810861F34D33C10861F35E
:103C200045130793069B010961F35D73410961F335
:103C30005553810961F34D33C10961F3451306936F
:103C4000059B010A61F35D73410A61F35553810AD3
:103C500061F34D33C10A61F345130593049B010BD6
:103C600061F35D73410B61F35553810B61F34D3388
:103C7000C10B61F345130493039B010C61F35D7366
:103C8000410C61F35553810C61F34D33C10C61F369
:103C90004513010D61F35D7B410D039361F3555BAA
:103CA000139B810D61F34D3BC00D60F3451B03F188
:103CB000C000159BB0FBF3F103FB1100149B53F8FC
:103CC000211000EB400008440530FEF7F3F9079B94
:103CD000410860F39E7361F39653810861F38E335C
:103CE000C10861F386130793069B010961F39E7374
:103CF000410961F39653810961F38E33C10961F380
:103D000086130693059B010A61F39E73410A61F3D2
:103D10009653810A61F38E33C10A61F386130593CA
:103D2000049B010B61F39E73410B61F39653810B6E
:103D300061F38E33C10B61F386130493039B010C73
:103D400061F39E73410C61F39653810C61F38E33E2
:103D5000C10C61F38613010D61F39E7B410D03934A
:103D600061F3965B139B810D61F38E3BC00D60F395
:103D7000861B03F1E000159BB0FBF3F103FB110080
:103D8000149B53F8211000EB400008440530FEF767
:103D900091F9079B169A410860F3DF7361F3D753DB
:103DA000810861F3CF33C10861F3C7130793069B02
:103DB000010961F3DF73410961F3D753810961F3AD
:103DC000CF33C10961F3C7130693059B010A61F361
:103DD000DF73410A61F3D753810A61F3CF33C10A1C
:103DE00061F3C7130593049B010B61F3DF73410B70
:103DF00061F3D753810B61F3CF33C10B61F3C71369
:103E00000493039B010C61F3DF73410C61F3D753FF
:103E1000810C61F3CF33C10C61F3C713010D61F362
:103E2000DF7B410D61F3D75B810D61F3CF3BC00DAB
:103E300042F8143C039360F3C71B049B42F818BC80
:103E400042F8103C059B42F80C3C069B42F8083CAB
:103E5000079B42F8043C139B0133202B139302F180
:103E60001802159B7FF4D0ACFEF785BD0D4B0E4AB2
:103E70001A600E4B0E491A681992199A4AF2026496
:103E80000A324BF280401D681895189DAA4204D949
:103E900072B60C80088062B6F5E772B6054B002258
:103EA0001A70FEE7FCFFFF1F4643627498F4FF1F81
:103EB0000C200540082107402DE9F041114C04F287
:103EC000146704F27C66384600F020F804F2E465DA
:103ED000304600F01BF8284600F018F804F24C7049
:103EE00000F014F8C4F80876C4F80C66C4F810564C
:103EF00004F638100023044A2021BDE8F04100F008
:103F0000BBB800BFC8F5FF1F40E0FF1FF8B504466F
:103F1000051F00F160060027FDF740FEC31C00F1FD
:103F2000430203F8017F9342FBD145F8040FB542E9
:103F3000F2D12046F8BDFFFF38B50B7903F020051C
:103F400003F01F0203F0C003402B0446EDB2084605
:103F500015D0802B23D02BBB94F8AE1141BB182A6F
:103F600006D812B2A36853F8221043F8220008467C
:103F7000FDF73AFEC5B1012384F8AE3114E0182AEA
:103F80009FBF04EB8202D2F84431C2F844111846B4
:103F9000FDF72AFE45B1012384F8AF3104E04B79E7
:103FA00084F8AC31FDF720FE012084F8AD0138BD66
:103FB000184638BD084983680968026882B00191D3
:103FC0000199596641688260044A80E80A001368D2
:103FD0000133136002B0704798F4FF1F20FFFF1FEA
:103FE00070B50C4D00221F2640F20334B2FBF6F3ED
:103FF00000EB8301C3EB4313D1F84411D31A01EB57
:104000004303DB885B0825F812300132A242EDD170
:1040100070BD00BFC8F5FF1F38B590F8AC315A0726
:10402000044605D513F0080F4FF0200306D003E037
:1040300090F8AD2120230AB10D4A00E00D4A13602B
:1040400094F8AE31002584F8AD5123B12046FFF736
:10405000B1FF84F8AE5194F8AF312BB12046FFF791
:10406000BFFF002384F8AF31BDE83840FDF70CBB3B
:1040700084F00F4088F00F4030B5044C18252180A3
:10408000237305FB01216260A16030BD04FFFF1FA7
:10409000F8B5554D2A8818230024534322469C42E4
:1040A00005D069680A55A9680A550134F7E74F4EEB
:1040B0004F4FFF23336001210220FDF761F90121F9
:1040C0000E20FDF75DF901210720FDF759F90121C7
:1040D0000820FDF755F901210620FDF751F90121CE
:1040E0001420FDF74DF901211520FDF749F90121B3
:1040F0000520FDF745F92B7B3E4D13F0100F3E4B8D
:1041000018BF1D4629460320FDF7C8F8294604209C
:10411000FDF7C4F83C210320FDF74EF9B02104203F
:10412000FDF74AF9354B364A1A6002210320FDF7A4
:1041300027F900210F20FDF723F9324B324A1A608C
:10414000A3F5FE530C3B02F500721A602F4A30486B
:104150001368304D43F02003136052F8043C43F0E1
:10416000020342F8043C2C4A00231360D36002F59A
:104170008152012115609380D3809160D3601061DA
:10418000A0F576208E389382A2B202806442C0F8F5
:104190000230082038807A8039817B81F9603C6167
:1041A0001E4C07F5762784372760A380E280A36042
:1041B000A081E2812561A382E382A16118490A24DA
:1041C0000B604E600B814A81CB600C824A82154A9B
:1041D000B22113701170B321537051709370B123D9
:1041E0009370114B1860F8BD04FFFF1FC8F00F401B
:1041F0003C90004000350C00801A060000A00440EE
:104200000003010000B004400001020040800440AF
:10421000C4F00F400746000000800040509000406E
:104220006C9000400110024000E100E008B5054B31
:1042300003221A70FDF75AF9034B00221A75186110
:1042400008BD00BF1F80004004FFFF1F10B5074CD2
:10425000237D43B9FDF74AF92369C01A31288CBF81
:104260000020012010BD012010BD00BF04FFFF1F72
:1042700010B51D4A137D1C4C002BFBD16268A3684E
:10428000A2601A4A63601360FDF730F92369C01A0F
:104290003128F9D9164B1A6818331B6872B61249BF
:1042A00001200875134801688B421249FBD2086847
:1042B0008342FCD308688342FCD80D4B0E4802F0C1
:1042C000E70119600121016000F5805001600B4990
:1042D0004FF400500860A1F5822194390E20086047
:1042E0001A6062B610BD00BF04FFFF1F409000407F
:1042F0000090034004900340A0A00440A09004401C
:104300004008FE4340A004404408FE4344A004404B
:104310000018FE4300C004403000FE4330900440CB
:104320003400FE43349004401C18FE431CC004407B
:104330001018FE4310C004400818FE4308C0044093
:104340000C18FE430CC004400C10FE430CB004409B
:104350001010FE4310B004401810FE4318B0044083
:104360001C10FE431CB004401410FE4314B0044063
:104370000418FE4304C004400010FE4300B0044093
:104380000008FE4300A004400408FE4304A00440CB
:104390000C08FE430CA004400808FE4308A004409B
:1043A0001418FE4314C004401818FE4318C00440FB
:1043B0000410FE4304B004400810FE4308B004405B
:1043C0001400FE43149004404C08FE434CA00440EB
:1043D0000420FE4304D004402410FE4324B00440D3
:1043E0002010FE4320B004402810FE4328B00440B3
:1043F0002C10FE432CB004400020FE4300D00440AB
:104400004808FE4348A004401000FE4310900440BA
:104410001900000000010000E34500001200000048
:1044200000020000B84500002B000000000300005F
:10443000B44500000000000001030000A245000098
:1044400000000000020300008E4500000000000094
:10445000030300000000001400000000040300003B
:104460006445000000000000EE030000524500001B
:10447000000000000000000000000000000000003C
:104480009200000000010500010088000000070004
:1044900000002A00440065007600690063006500A2
:1044A00049006E00740065007200660061006300E0
:1044B00065004700550049004400730000005000AB
:1044C00000007B00360032006600640034003100DA
:1044D000320033002D0038003700650033002D0016
:1044E00034003700660065002D00390034003600C6
:1044F00061002D0065003000340034006600330098
:104500003600660032006600620033007D00000065
:104510000000400000000001040002000000000054
:104520000000000157494E555342000000000000B2
:1045300000000000000000000000010157494E5536
:1045400053420000000000000000000000000000D6
:10455000000012034D0053004600540031003000AB
:1045600030007E002A03460061006400650063009D
:1045700061006E0064007900200042006F006F004F
:1045800074006C006F006100640065007200140329
:104590004600610064006500630061006E00640015
:1045A000790012037300630061006E006C00690003
:1045B0006D0065000403090409022B00020100805C
:1045C000320904000001FF0000000705010240005D
:1045D000000904010000FE01010409210D1027005B
:1045E0000401011201000200000040501D7A600821
:1045F00001010203014661646563616E647920769E
:0C460000312E30380D0A00FFB93E0000DA
:0400000300001000E9
:00000001FF
