:10000000FCFFFF1FF900000003E2FF1F03E2FF1FD8
:1000100003E2FF1F03E2FF1F03E2FF1F01E2FF1FD6
:1000200001E2FF1F01E2FF1F01E2FF1F03E2FF1FCA
:1000300003E2FF1F01E2FF1F03E2FF1F03E2FF1FB6
:1000400003E2FF1F03E2FF1F03E2FF1F03E2FF1FA4
:1000500003E2FF1F03E2FF1F03E2FF1F03E2FF1F94
:1000600003E2FF1F03E2FF1F03E2FF1F03E2FF1F84
:1000700003E2FF1F03E2FF1F03E2FF1F03E2FF1F74
:100080001DE7FF1F03E2FF1F03E2FF1F03E2FF1F45
:1000900003E2FF1F03E2FF1F03E2FF1F03E2FF1F54
:1000A00003E2FF1F03E2FF1F03E2FF1F03E2FF1F44
:1000B00003E2FF1F03E2FF1F03E2FF1F03E2FF1F34
:1000C00003E2FF1F03E2FF1F03E2FF1F45E2FF1FE2
:1000D00003E2FF1F03E2FF1F03E2FF1F03E2FF1F14
:1000E00003E2FF1F03E2FF1F03E2FF1F03E2FF1F04
:1000F00003E2FF1F03E2FF1F404B4CF220521A8025
:100100004DF628121A8000BF00BFD32223F80E2C10
:1001100000221A81072223F80A2C4FF4A64223F862
:10012000082CA3F51F43D63B354A1A60354A5A605E
:1001300003F5533303F2CA331A783349100742BF29
:100140001A7842F008021A70304B0A221A70A3F68D
:10015000FF7324221A70A02203F8012C0B782A4A7C
:1001600013F0020FFAD01378D906FCD4137803F0F9
:100170000C03082BFAD1264B264903221A70402281
:100180005A70254A254B8B4204D252F8040F43F88B
:10019000040BF8E7224B234A0021934202D243F892
:1001A000041BFAE7204A2148002350F8231042F8A4
:1001B00023100133402BF8D11D4B1B4A12491A6002
:1001C0000B78114A13F0200FFAD013785B06FCD598
:1001D000184B194A1A60194B20221A700A4A1378D0
:1001E00003F00C030C2BFAD1154B02221A60443B8E
:1001F000144A1A6062B600F0E3B800BF0E20054052
:10020000823F04000100002B0640064000500640DB
:1002100004400640DCECFF1F0C04000000E2FF1F5E
:1002200000F0FF1F30F6FF1F00F0FF1F000000006E
:1002300008ED00E044800440000003110040064047
:1002400048800440C0100500184A136843F48063D6
:100250001360174A00231370164A1370164A13705E
:10026000164A1370164A1370164B40F213321A6076
:100270004FF451725A60144BC0F344321A70C0F3F9
:1002800047125A7000F01F00104A9872022104238E
:1002900013705174D3740E4B88221A703C2203F8E9
:1002A0000D2C0C4B4FF480321A60704734800440A0
:1002B00022F2FF1FA1F1FF1F24F2FF1F23F2FF1FF5
:1002C000A0F1FF1F40A0044000A0064002A006408D
:1002D00010A0064000E100E0114B1B685B05F0B583
:1002E0001DD5104A104D137810490133402B28BFFB
:1002F00000234AF202664BF280472C789C4204D1DC
:1003000072B60E800F8062B6F7E70949C8540949F2
:10031000DBB2012008701370074BBC221A70F0BDCD
:100320003480044024F2FF1F23F2FF1F0C200540FD
:10033000A2F1FF1FA0F1FF1F03A0064038B504463D
:100340004518AC4204D014F8010BFFF7C5FFF8E7DD
:1003500038BD0749074B10B54AF202604BF28044A2
:100360000A7822B172B618801C8062B6F8E710BD18
:10037000A0F1FF1F0C20054008B50B4B1B685B0567
:1003800011D5FFF7E6FF094B09494FF480321A6097
:10039000084A0023137040F203120A604A60064ABA
:1003A0001370064A137008BD3480044080E100E0F9
:1003B00040A0044003A0064022F2FF1FA1F1FF1F4E
:1003C00001B40248844601BC604700BF2DE8FF1F0E
:1003D000FFFFFFFFFFFFFFFFFFFFFFFFFFFFFFFF2D
:1003E000FFFFFFFFFFFFFFFFFFFFFFFFFFFFFFFF1D
:1003F000FFFFFFFFFFFFFFFFFFFFFFFFFFFFFFFF0D
:10040000FFFFFFFFFFFFFFFFFEFFFFFFFEFFFF40BD
:10041000FEE7FEE7F0B50C4C0C4E23780C4D43F094
:10042000020706EBC70283F0010350602A782370AD
:10043000002A14BFC820882082F0010240EA01414E
:100440002A7046F83710F0BD48F1FF1F00E0FF1F8B
:100450009FF1FF1F2DE9F74F984DDFF88C822F4653
:100460002B78964ADBB213F0040F18BF042103F077
:10047000080018BF297000F0FF01002800F09981E2
:1004800098F80060F6B2330940F09081DFF85C9292
:10049000B60809EBC602516859F83620C2F3830248
:1004A000092A00F058810D2A03D0012A40F07B81EF
:1004B00020E1834C0A6849686160824949F8361036
:1004C0008149226001200870804E8149336092B2D8
:1004D000B2F5A06F0B8068D025D840F221139A4264
:1004E00000F08A80B2F5917F0DD2822A40D0B2F519
:1004F000817F4CD0802A40F0AA80764A0023137076
:10050000537002239BE040F2A1339A4200F08480B2
:1005100040F221439A4200F0868040F202339A4230
:1005200040F0958043E040F281618A420BD8B2F5F9
:10053000D06F4AD240F2A1539A4279D040F221635F
:100540009A427ED083E0B2F5106F0ED007D8B2F594
:10055000086F7CD1604B5F4A1B7813706EE0A2F588
:10056000FD42403A012A43D971E0A1785A4A1BE082
:10057000A2885A4B0AB10F2214E1564900220A7090
:100580004A701B78980765D501230B7062E0A2883A
:1005900051065CD14A4B5B88002B58D191004F4AE1
:1005A0000A44117821F00201117099465CE0A2889A
:1005B00053064CD1424B5B88002B48D19100474AEF
:1005C0000A44117841F00201EEE76288444BD3F807
:1005D0000490B9F1000F3AD019888A4206D1120A64
:1005E000032A0CBF99F800301B893DE00C33EEE77D
:1005F000A388042B2BD130E0A38843BBE3884BB9FD
:10060000608800931A46194600F0C4FA10B9334BBB
:100610000F221A700023C8E7A388C3B92D4800F041
:1006200021FBF0B913E0A3888BB900F08DFB0CE03F
:10063000A38863B900F0A8FA264A107001239146F6
:1006400012E0A3881BB900F095FB0028E2D10F222D
:10065000224BA7E00223894606E02823DFF890908A
:1006600002E0DFF870900623E4889C4228BF1C4615
:10067000402CA24628BF4FF0400A48465146FFF79B
:10068000C9FEB4EB0A04D14403D1BAF1400F40F0E3
:100690008A80402CA24628BF4FF0400A5146484667
:1006A000FFF7B8FEB4EB0A0409EB0A0302D1BAF172
:1006B000400F78D133600B4B1C8074E080200740E2
:1006C0008CF1FF1F800040009FF1FF1F00F1FF1F12
:1006D00004F1FF1F96F1FF1F9EF1FF1FC02007408E
:1006E000D0EBFF1F94F1FF1F9020074000E0FF1F99
:1006F00076ECFF1F4B48028840F221139A4226D124
:100700008288494B1AB1C4881A8894421CD3B0F825
:1007100006E01A8840880091C2EB0E03402B28BFE8
:1007200040237146404C9A4600F034FA60B1238869
:100730003C4A5344D2889BB29A42238007D8002176
:100740003A48FFF767FE02E0394B0F221A70394B27
:1007500049F8363027E0DFF800A1DAF80090B9F167
:10076000000F16D0DFF8F4B0BBF80040402C26464E
:1007700028BF402648463146FFF74CFEA01B80B2FA
:10078000ABF8000008B9402E01D109EB0600CAF809
:100790000000244B1A88B2F5A06F04D100225A70D1
:1007A0009A78254B1A70254B01221A7008233B704A
:1007B00056E6DC071FD521481E4C214D022303704D
:1007C000204B1970204B1C609C60204CDC605D60ED
:1007D00019619961164B0D241C701D4CFF23237069
:1007E0001370154A117002F80C3C1A4B9F221A70B4
:1007F0000123037012E0180604D50D490D2008707E
:1008000080211170990705D511480178C9B201708E
:1008100002211170DB0644BF1023137003B0BDE842
:10082000F08F00BF8CF1FF1F04F1FF1F96F1FF1F37
:10083000C0200740800040009820074094200740D7
:1008400008F1FF1F48F1FF1F00E0FF1F4CF1FF1FE1
:10085000882007408420074000F1FF1F94F1FF1F0C
:10086000174A136843F480231360164B80221A70D2
:100870001978144A0906FBD4134B1449C3F3072013
:100880000870C3F307401B0E08750B76FF2301F8B1
:100890001C3C01F8143C01F88C3C137843F04003F5
:1008A00013700021012302F8783C02F80C1C02F8B6
:1008B000883C074B08221A60064B10221A707047BA
:1008C000348004400C21074000E0FF1F9C200740BB
:1008D00004E100E008210740054B1878054B1A7821
:1008E000C0B2D3B2984238BF4030C01A704700BF80
:1008F00022F2FF1FA1F1FF1F094B0A4A1978137852
:10090000DBB2994208D00133DBB2402B28BF002371
:100910000549C85C137070474FF0FF30704700BF47
:1009200022F2FF1FA1F1FF1FE2F1FF1FF0B5304AD5
:10093000137813F0300F27D072B62E4B2E4F1B7842
:1009400003F0FF002BB93B782C4B4021197062B6A5
:100950001AE062B62A4B2B4C19782578DFF8BCE0F8
:10096000C9B2EDB21C464B1CDBB2402B3E7828BF0F
:100970000023AB42F6B21CBF0EF803601946431EBB
:1009800013F0FF00EFD121701F4B1978C9B20D068B
:1009900022D513781C061FD51C4B1D481D780378E3
:1009A000DFF87CE0144F1B4EEDB2DBB2AB420CD053
:1009B0000133DBB2402B28BF002314781EF803401C
:1009C000E4B23C703478072CF0D903701378180621
:1009D00042BF0D4B7C201870490608D513785B0682
:1009E00005D50D4B00221A70074B3C221A70F0BD42
:1009F00004A0064016A0064007A0064011A006402D
:100A000022F2FF1FA1F1FF1F03A0064024F2FF1FE7
:100A100023F2FF1F14A00640A0F1FF1FE2F1FF1F09
:100A2000A2F1FF1F72B6044B4AF202621A804BF227
:100A300080421A8062B670470C20054038B542F2F9
:100A4000107000F0ADF907212D482D4D00F0B8F9D8
:100A50000A2000F09DF900F0ABF90024FFF73CFFFD
:100A600038B1FFF749FF635D984202D10134072C8A
:100A7000F4D100F0ADF9072C0BD022494B68A3F557
:100A80008053B3F5F83F04D21F4C204B22689A42A2
:100A900027D11F4B4FF4A2721A601E4A2023136005
:100AA00042F8143C00F06EF8FFF7DAFE00F06CF844
:100AB000072802D0FFF7B6FFF8E7134B164C0022C9
:100AC0001A600B21202515482560FFF7ABFF013880
:100AD000FBD10139F7D1FFF7A5FF72B6104B1970A2
:100AE000FEE772B60F4B1960FFF79CFF00200A6803
:100AF000206049684FF0FF339E469546084738BD51
:100B0000CCECFF1F00100000FCFFFF1F4643627487
:100B100014B0044094F00F408CF00F40A086010008
:100B20000821074008ED00E0030610B522D500F0CB
:100B3000400303F0FF043BB10F4B0A221A700F4B26
:100B40000E221A70002213E010F0300208D00A4B77
:100B50000A221A70094B08221A70094B1C7009E00E
:100B600010F0010007D0044B0A201870034B1970D5
:100B7000034B1A70012010BDD4ECFF1F2DF6FF1F90
:100B80002CF6FF1F70470000014B1878704700BF1C
:100B9000D4ECFF1FF0B5D418B4F5806F059D01D8D3
:100BA0008C4206D9274B0A221A70274B08221A704A
:100BB00017E0264E2B4432449D4204D015F8016BB9
:100BC00002F8016FF8E78C423AD11E4B1E491A78A1
:100BD000022A1E4607D0052A05D00A221A700F23C2
:100BE0000B700020F0BD1A4F3B781B0602D5194B45
:100BF0001D781DB10A2333700E23F1E71CB90623BB
:100C000033700C701CE001221A708302124803F545
:100C100080530360114809240470C3F307441B0A7E
:100C2000DBB200F8014C00F8023C0D4B1D70702344
:100C30003B7080233B70032333700D701046F0BD72
:100C40000120F0BDD4ECFF1F2DF6FF1F2BF2FF1F7C
:100C5000000002402CF6FF1F28F2FF1F0700024091
:100C6000040002402DE9F8432F4D304F2B78032B21
:100C7000044649D3042B07D9062B45D107232B70F3
:100C80004FF47A733B603FE0294EDFF8B88096F866
:100C9000009098F80000B9F1010FC0B203D0B9F18B
:100CA000020F22D026E00421FFF73EFF10BB0223F3
:100CB0003370204B204A1B680B211170C3F307418E
:100CC00002F8011CC3F30721DBB202F8021C02F890
:100CD000033C1A4B83F8009003F8010C702388F84A
:100CE0000030802388F8003004E00721FFF71CFF64
:100CF00000B930702A780C4B0A2A05D032780AB92C
:100D0000052200E004221A700D4B1B7823703B680B
:100D100063701A0A1B0CE3702B7823710023A270F6
:100D200063710120BDE8F883D4ECFF1FD8ECFF1FEE
:100D30002CF6FF1F28F2FF1F070002400B000240A5
:100D40002DF6FF1F00000240084B1A780A2A084AB5
:100D500005D10221197000231370012070470A2168
:100D600019700F2313700020704700BFD4ECFF1FD1
:100D70002DF6FF1F034B02221A70034B00221A703C
:100D800001207047D4ECFF1F2DF6FF1F000000006C
:100D900001B40248844601BC604700BFD90200008C
:100DA00001B40248844601BC604700BF490200000C
:100DB00001B40248844601BC604700BF53030000F1
:100DC00001B40248844601BC604700BF3D030000F7
:100DD00001B40248844601BC604700BF79030000AB
:100DE0000001000024ECFF1F1200000000020000C0
:100DF00048ECFF1F1B00000000030000C8ECFF1FB1
:100E0000000000000103000036ECFF1F000000009E
:100E1000020300009EECFF1F00000000EE03000034
:100E200064ECFF1F00000000000000000000000054
:100E3000000000001201000200000040501D82600E
:100E400001010102000112037300630061006E00E2
:100E50006C0069006D00650009021B000101028041
:100E6000320904000000FE01020209210D102700D2
:100E70000401010012034D005300460054003100EC
:100E8000300030007E002800000000010400010056
:100E9000000000000000000157494E555342000079
:100EA00000000000000000000000000000002A0315
:100EB0004600610064006500630061006E0064002C
:100EC0007900200042006F006F0074006C006F001A
:100ED00061006400650072000403090446432D426A
:0C0EE0006F6F74000200000001000000B1
:00000001FF
